:020000040800F2
:1000000000800120894A0008AD480008B348000874
:10001000B9480008BF480008C548000800000000B3
:10002000000000000000000000000000CB480008B5
:10003000D748000800000000E3480008EF48000827
:10004000D14A0008D14A0008D14A0008D14A000824
:10005000D14A0008D14A0008D14A0008D14A000814
:10006000D14A0008D14A0008D14A0008D14A000804
:10007000D14A0008D14A0008D14A0008D14A0008F4
:10008000D14A0008D14A0008D14A0008D14A0008E4
:10009000D14A0008D14A0008D14A0008D14A0008D4
:1000A000D14A0008D14A0008D14A0008D14A0008C4
:1000B000D14A0008D14A0008D14A0008D14A0008B4
:1000C000D14A0008D14A0008D14A0008D14A0008A4
:1000D000D14A0008D14A0008D14A0008D14A000894
:1000E000D14A0008D14A0008D14A0008D14A000884
:1000F000D14A0008D14A0008D14A0008D14A000874
:10010000D14A0008D14A0008D14A0008D14A000863
:10011000D14A0008D14A0008D14A0008D14A000853
:10012000D14A0008D14A0008D14A0008D14A000843
:1001300000000000000000000000000000000000BF
:1001400000000000000000000000000000000000AF
:10015000000000000000000000000000000000009F
:10016000000000000000000000000000000000008F
:10017000000000000000000000000000000000007F
:10018000000000000000000000000000000000006F
:10019000000000000000000000000000000000005F
:1001A000000000000000000000000000000000004F
:1001B000000000000000000000000000000000003F
:1001C000000000000000000000000000000000002F
:1001D000000000000000000000000000000000001F
:0401E0005FF8E0F1F3
:1001E80010B5054C237833B9044B13B10448AFF369
:1001F80000800123237010BD2802002000000000A9
:100208002C1C010808B5034B1BB103490348AFF385
:10021800008008BD000000002C0200202C1C0108F2
:10022800034613F8012B002AFBD1181A013870472E
:1002380081F0004102E000BF83F0004330B54FEA8F
:1002480041044FEA430594EA050F08BF90EA020FFC
:100258001FBF54EA000C55EA020C7FEA645C7FEA8F
:10026800655C00F0E2804FEA5454D4EB5555B8BFB2
:100278006D420CDD2C4480EA020281EA030382EA23
:10028800000083EA010180EA020281EA0303362DB5
:1002980088BF30BD11F0004F4FEA01314FF4801C88
:1002A8004CEA113102D0404261EB410113F0004F9A
:1002B8004FEA03334CEA133302D0524263EB430351
:1002C80094EA050F00F0A780A4F10104D5F1200EEF
:1002D8000DDB02FA0EFC22FA05F2801841F100014A
:1002E80003FA0EF2801843FA05F359410EE0A5F11E
:1002F80020050EF1200E012A03FA0EFC28BF4CF04F
:10030800020C43FA05F3C01851EBE37101F0004504
:1003180007D54FF0000EDCF1000C7EEB00006EEB11
:100328000101B1F5801F1BD3B1F5001F0CD349089B
:100338005FEA30004FEA3C0C04F101044FEA4452F2
:1003480012F5800F80F09A80BCF1004F08BF5FEA79
:10035800500C50F1000041EB045141EA050130BD59
:100368005FEA4C0C404141EB0101013C28BFB1F56B
:10037800801FE9D291F0000F04BF01460020B1FAB6
:1003880081F308BF2033A3F10B03B3F120020CDA89
:100398000C3208DD02F1140CC2F10C0201FA0CF067
:1003A80021FA02F10CE002F11402D8BFC2F1200CCC
:1003B80001FA02F120FA0CFCDCBF41EA0C01904082
:1003C800E41AA2BF01EB0451294330BD6FEA0404CB
:1003D8001F3C1CDA0C340EDC04F11404C4F12002B6
:1003E80020FA04F001FA02F340EA030021FA04F3C8
:1003F80045EA030130BDC4F10C04C4F1200220FA1F
:1004080002F001FA04F340EA0300294630BD21FA5C
:1004180004F0294630BD94F0000F83F4801306BF22
:1004280081F480110134013D4EE77FEA645C18BF16
:100438007FEA655C29D094EA050F08BF90EA020FAD
:1004480005D054EA000C04BF1946104630BD91EAA5
:10045800030F1EBF0021002030BD5FEA545C05D1A8
:100468004000494128BF41F0004130BD14F58004E7
:100478003CBF01F5801130BD01F0004545F0FE415B
:1004880041F470014FF0000030BD7FEA645C1ABF90
:10049800194610467FEA655C1CBF0B46024650EAC7
:1004A800013406BF52EA033591EA030F41F40021F3
:1004B80030BD00BF90F0000F04BF0021704730B579
:1004C8004FF4806404F132044FF000054FF000014E
:1004D80050E700BF90F0000F04BF0021704730B50F
:1004E8004FF4806404F1320410F0004548BF4042E4
:1004F8004FF000013EE700BF42004FEAE2014FEA39
:1005080031014FEA02701FBF12F07F4393F07F4F13
:1005180081F06051704732F07F4208BF704793F016
:100528007F4F04BF41F40021704730B54FF4607429
:1005380001F0004521F000411CE700BF50EA01022C
:1005480008BF704730B54FF000050AE050EA0102D5
:1005580008BF704730B511F0004502D5404261EB45
:1005680041014FF4806404F132045FEA915C3FF486
:10057800D8AE4FF003025FEADC0C18BF03325FEA23
:10058800DC0C18BF033202EBDC02C2F1200300FAD4
:1005980003FC20FA02F001FA03FE40EA0E0021FAF9
:1005A80002F11444BDE600BF70B54FF0FF0C4CF4E7
:1005B800E06C1CEA11541DBF1CEA135594EA0C0F99
:1005C80095EA0C0F00F0DEF82C4481EA030621EAD4
:1005D8004C5123EA4C5350EA013518BF52EA03350F
:1005E80041F4801143F4801338D0A0FB02CE4FF0C1
:1005F8000005E1FB02E506F00042E0FB03E54FF0F1
:100608000006E1FB03569CF0000F18BF4EF0010EE8
:10061800A4F1FF04B6F5007F64F5407404D25FEAE4
:100628004E0E6D4146EB060642EAC62141EA555197
:100638004FEAC52040EA5E504FEACE2EB4F1FD0CD9
:1006480088BFBCF5E06F1ED8BEF1004F08BF5FEA57
:10065800500E50F1000041EB045170BD06F0004609
:1006680046EA010140EA020081EA0301B4EB5C04B6
:10067800C2BFD4EB0C0541EA045170BD41F48011AE
:100688004FF0000E013C00F3AB8014F1360FDEBFD3
:10069800002001F0004170BDC4F10004203C35DAAF
:1006A8000C341BDC04F11404C4F1200500FA05F332
:1006B80020FA04F001FA05F240EA020001F00042D3
:1006C80021F0004110EBD37021FA04F642EB060149
:1006D8005EEA430E08BF20EAD37070BDC4F10C0473
:1006E800C4F1200500FA04F320FA05F001FA04F237
:1006F80040EA020001F0004110EBD37041F1000123
:100708005EEA430E08BF20EAD37070BDC4F120052D
:1007180000FA05F24EEA020E20FA04F301FA05F295
:1007280043EA020321FA04F001F0004121FA04F23D
:1007380020EA020000EBD3705EEA430E08BF20EA0D
:10074800D37070BD94F0000F0FD101F00046400047
:1007580041EB010111F4801F08BF013CF7D041EAC9
:10076800060195F0000F18BF704703F000465200CD
:1007780043EB030313F4801F08BF013DF7D043EA9E
:100788000603704794EA0C0F0CEA135518BF95EA54
:100798000C0F0CD050EA410618BF52EA4306D1D1DB
:1007A80081EA030101F000414FF0000070BD50EAFA
:1007B800410606BF1046194652EA430619D094EA84
:1007C8000C0F02D150EA013613D195EA0C0F05D16E
:1007D80052EA03361CBF104619460AD181EA0301C2
:1007E80001F0004141F0FE4141F470014FF000007A
:1007F80070BD41F0FE4141F4780170BD70B54FF015
:10080800FF0C4CF4E06C1CEA11541DBF1CEA135594
:1008180094EA0C0F95EA0C0F00F0A7F8A4EB050476
:1008280081EA030E52EA03354FEA013100F088806D
:100838004FEA03334FF0805545EA131343EA126336
:100848004FEA022245EA111545EA10654FEA0026EB
:100858000EF000419D4208BF964244F1FD0404F5A4
:10086800407402D25B084FEA3202B61A65EB030500
:100878005B084FEA32024FF480104FF4002CB6EBBD
:10088800020E75EB030E22BFB61A754640EA0C003D
:100898005B084FEA3202B6EB020E75EB030E22BF7D
:1008A800B61A754640EA5C005B084FEA3202B6EBBE
:1008B800020E75EB030E22BFB61A754640EA9C007D
:1008C8005B084FEA3202B6EB020E75EB030E22BF4D
:1008D800B61A754640EADC0055EA060E18D04FEA0B
:1008E800051545EA16754FEA06164FEAC30343EAAB
:1008F80052734FEAC2025FEA1C1CC0D111F4801F78
:100908000BD141EA00014FF000004FF0004CB6E770
:1009180011F4801F04BF01430020B4F1FD0C88BF0F
:10092800BCF5E06F3FF6AFAEB5EB030C04BFB6EB1A
:10093800020C5FEA500C50F1000041EB045170BD0D
:100948000EF0004E4EEA113114EB5C04C2BFD4EB3A
:100958000C0541EA045170BD41F480114FF0000EBE
:10096800013C90E645EA060E8DE60CEA135594EA3A
:100978000C0F08BF95EA0C0F3FF43BAF94EA0C0F3D
:100988000AD150EA01347FF434AF95EA0C0F7FF4B2
:1009980025AF104619462CE795EA0C0F06D152EA06
:1009A80003353FF4FDAE1046194622E750EA4106EA
:1009B80018BF52EA43067FF4C5AE50EA41047FF4FB
:1009C8000DAF52EA43057FF4EBAE12E74FF0FF3C60
:1009D80006E000BF4FF0010C02E000BF4FF0010C31
:1009E8004DF804CD4FEA410C7FEA6C5C4FEA430CAA
:1009F80018BF7FEA6C5C1BD001B050EA410C0CBFF9
:100A080052EA430C91EA030F02BF90EA020F00205A
:100A1800704710F1000F91EA030F58BF994208BFC1
:100A280090422CBFD8176FEAE37040F0010070477E
:100A38004FEA410C7FEA6C5C02D150EA013C07D1D5
:100A48004FEA430C7FEA6C5CD6D152EA033CD3D020
:100A58005DF8040B704700BF8446104662468C461A
:100A68001946634600E000BF01B5FFF7B7FF00284D
:100A780048BF10F1000F01BD4DF808EDFFF7F4FF76
:100A88000CBF012000205DF808FB00BF4DF808ED01
:100A9800FFF7EAFF34BF012000205DF808FB00BF24
:100AA8004DF808EDFFF7E0FF94BF012000205DF846
:100AB80008FB00BF4DF808EDFFF7CEFF94BF0120FB
:100AC80000205DF808FB00BF4DF808EDFFF7C4FFF4
:100AD80034BF012000205DF808FB00BF4FEA410C3D
:100AE8007FEA6C5C02D150EA013C0AD14FEA430C20
:100AF8007FEA6C5C02D152EA033C02D14FF000005D
:100B080070474FF0010070474FEA410212F500129A
:100B180015D211D56FF47873B3EB625212D94FEA3C
:100B2800C12343F0004343EA505311F0004F23FA26
:100B380002F018BF404270474FF00000704750EA7B
:100B4800013005D111F0004008BF6FF00040704738
:100B58004FF00000704700BF4A0011D212F5001292
:100B680011D20DD56FF47873B3EB62520ED44FEAFD
:100B7800C12343F0004343EA505323FA02F070477D
:100B88004FF00000704750EA013002D14FF0FF30BB
:100B980070474FF0000070474FEA4102B2F1E0435E
:100BA80024BFB3F5001CDCF1FE5C0DD901F0004C4C
:100BB8004FEAC0024CEA5070B2F1004F40EB83009C
:100BC80008BF20F00100704711F0804F21D113F1C8
:100BD8003872BCBF01F00040704741F480114FEA01
:100BE8005252C2F11802C2F1200C10FA0CF320FA8A
:100BF80002F018BF40F001004FEAC1234FEAD323A7
:100C080003FA0CFC40EA0C0023FA02F34FEA430310
:100C1800CCE77FEA625307D150EA01331EBF4FF099
:100C2800FE4040F44000704701F0004040F0FE40B4
:100C380040F40000704700BF38B505460C46002256
:100C4800002328462146FFF721FF28B928462146D8
:100C5800BDE8384000F00AB8284604F1004100F029
:100C680005F8404261EB410138BD00BFD0B5002214
:100C78000B4B06460F46FFF797FCFFF76DFF044640
:100C8800FFF718FC0022074BFFF78EFC02460B46C5
:100C980030463946FFF7D0FAFFF75EFF2146D0BD50
:100CA8000000F03D0000F04180B500AF012103488D
:100CB80004F074FD0346184680BD00BF00100140D3
:100CC80080B588B002AF7860FA23FB740023FB601C
:100CD80000233B8200237B6107F113024FF47A73F0
:100CE80000930123A021144804F0CCFE0346002BF6
:100CF80003D04FF0FF337B6118E007F10C024FF48B
:100D08007A7300930623A1210B4804F0B9FF034628
:100D1800002B03D04FF0FF337B6107E07B681A4656
:100D280007F10C03186810609B8893807B6918464C
:100D38001837BD4680BD00BFD833002080B582B0CB
:100D480000AF7860124B01221A717B681A78114B38
:100D58001A707B685A780F4B5A707B689A780D4BDB
:100D68009A707B68DA780B4BDA700B4B48F6B8024E
:100D78001A800A4A0A4B1B8813800A4B1A880023D8
:100D88000121022001F07AFB00BF0837BD4680BD73
:100D98005C02002050020020540200206102002062
:100DA800481C01080000002090B59DB002AFF86013
:100DB800B9607A603B600023BB6107F11C032E22F7
:100DC800002118460CF0ACF90023A7F8663001237F
:100DD800FB644FF4527000F0D7FE03461C2B00F260
:100DE8009C8201A252F823F0F51200082313000890
:100DF80023130008231300082313000823130008F3
:100E080023130008231300082313000823130008E2
:100E180023130008231300082313000823130008D2
:100E280023130008231300082313000823130008C2
:100E380023130008650E0008231300082313000875
:100E480023130008A10E0008231300082313000829
:100E58002313000823130008CD120008AA480DF038
:100E68006FF8AA4B1B881A463968022001F0E4FC87
:100E78000346FB64FB6C012B06D00221A4480CF04E
:100E8800C5FFFB6CDBB2D4E3A24B00221A7002212F
:100E9800A1480CF0BBFF43E29E4B1B78002B0AD104
:100EA80002219E480CF0B2FF9D4A9E4B1B8813807E
:100EB800984B01221A70022001F00BF80346A7F89C
:100EC8006630B7F86630002B00F0F6814FF4006208
:100ED8000021F8680CF024F9B7F86630B3F5006F14
:100EE80003D940F2FF73A7F86630B7F866301A46A0
:100EF800F968022001F0ECFEF864FB6CFA68134410
:100F080000221A70B7F86630FA6C9A4212D0FB6C5D
:100F1800002B01D100238CE3FB6C002B0ADAFA6C5E
:100F2800022181480CF072FF022001F0BDFBFB6C2E
:100F3800DBB27EE300233B651CE03B6DFA6813449B
:100F48001B780D2B13D1F868FFF76AF903469A1E30
:100F58003B6D9A420BD03B6D0133FA6813441B7802
:100F68000A2B04D03B6DFA68134420221A703B6D9B
:100F780001333B65F868FFF753F902463B6D9A4227
:100F8800DBD87A68B968F86800F0D0FC674B1B7842
:100F9800002B00F09181664B5B78032B52D0032B1A
:100FA80000F38C81012B03D0022B00F0018185E135
:100FB800032000F08EFF0346A7F86630B7F86630C6
:100FC800002B00F07D814FF400620021F8680CF0DE
:100FD800A7F8B7F86630B3F5006F03D940F2FF738E
:100FE800A7F86630B7F866301A46F968032001F0AA
:100FF8006FFEF864FB6CFA68134400221A70B7F8A5
:101008006630FA6C9A4212D0FB6C002B01D1002397
:101018000FE3FB6C002B0ADAFA6C022142480CF051
:10102800F5FE032001F040FBFB6CDBB201E3F9683D
:1010380040480CF0EBFE3D4B00221A703C4B00225E
:101048005A703DE13C480CF07BFF3548FFF7E8F863
:101058000346012B08D100F033FB03461A463749F3
:1010680037480CF079FF07E000F02AFB03462C4ACA
:10107800344933480CF070FF0A22314932480AF0EB
:101088004BF903461A46314B83F8FC282F4B93F84B
:10109800FC38002B40F08480032000F01AFF034640
:1010A8007B657B6D002B63D07B6DB3F5006F03D937
:1010B8004FF40063FB6501E07B6DFB65FB6D9BB244
:1010C8001A46F968032001F003FEF864FA6C07F188
:1010D8001403F9681C480AF00BFD03461A461B4B1B
:1010E80083F8FC287B697A6DD31A7B65174B93F8D4
:1010F800FC38002B03D016480CF022FF2BE07B6D48
:10110800002B27D0D0E700BF4C1C010800000020AE
:10111800681C010856020020841C0108A01C010854
:1011280061020020481C0108B41C01085A02002072
:101138005C0B0020CC1C0108E01C0108F01C010815
:10114800C5020020F41C01082C0300205C020020CA
:10115800FC1C010800BF9D4B93F8FC38002B03D002
:101168009B480CF0EDFE0CE023200CF067FE93E7A3
:101178004FF45A7000F008FD0346172B00D18BE797
:1011880000BF94480CF0DCFE93480AF018FF0346B1
:101198001A468E4B83F8FC28904B00221A7090E078
:1011A8008A4B93F8FC3819468D480CF02FFE88E0DE
:1011B80000F07CFA034619468A480CF027FE8A4854
:1011C800FFF72EF80346012B08D100F06FFA03460B
:1011D8001A46864986480CF0BFFE07E000F066FA1A
:1011E8000346814A834982480CF0B6FE01228049B1
:1011F80079480AF091F803461A46744B83F8FC289C
:10120800724B93F8FC38002B3DD1704BD3F8DC3887
:10121800BB654FF400620021F8680BF081FFBB6DDD
:10122800B3F5006F03D94FF400633B6601E0BB6D73
:101238003B6607F114033A6EF96867480AF0EDFA5D
:1012480003461A46614B83F8FC28604B93F8FC3838
:10125800002B0ED17B699BB21A46F968032001F076
:101268003DFC7B69BA6DD31ABB65BB6D002BD0D131
:1012780000E000BF58480AF0A2FE03461A46534B46
:1012880083F8FC280EE0514B93F8FC381946544873
:101298000CF0BCFD50480AF092FE03461A464B4B30
:1012A80083F8FC284D4B00221A70534B00225A70C9
:1012B800032001F09DFB04E000BF31E000BF2FE0F8
:1012C80000BF2DE002214D480CF0A0FD022001F0E6
:1012D8008FFB0346FB64FB6C012B02D0FB6CDBB27B
:1012E800A7E1022146480CF091FD19E0454B1A8808
:1012F80001230121022001F0C1F80346FB64FB6CC5
:10130800022B0CD0FA6C02213F480CF07FFD022022
:1013180001F0CAF9FB6CDBB28BE100BF00E000BF53
:101328003A4B1B78002B4FD0384B00221A70324BA7
:101338001B78032B31D0032B70DC012B02D0022B3E
:1013480014D06BE007F11803314918460CF004FE7D
:1013580007F118031846FEF763FF03469AB207F130
:1013680018031946022001F0B9FB58E000F0A8F96B
:10137800024607F11803274918460CF0EDFD07F15E
:1013880018031846FEF74CFF03469AB207F11803F4
:101398001946022001F0A2FB41E000F087F902465D
:1013A80007F118031C4918460CF0D6FD07F118037D
:1013B8001846FEF735FF03469AB207F11803194697
:1013C800022001F08BFB2AE000BF28E05C0200202D
:1013D800FC1C01080C1D01082C0300205A020020E7
:1013E800241D01083C1D010861020020F01C0108B1
:1013F800C5020020F41C01085C0B0020501D0108E8
:10140800641D010800000020781D01085902002011
:10141800901D0108981D0108A41D010800BF4FF484
:101428005A7000F0B1FB03461C2B00F2FA8001A2AF
:1014380052F823F06D1500082B1600082B1600082B
:101448002B1600082B1600082B1600082B16000870
:101458002B1600082B1600082B1600082B16000860
:101468002B1600082B1600082B1600082B16000850
:101478002B1600082B1600082B1600082B16000840
:10148800CB1400082B1600082B1600082B16000892
:10149800B11400082B1600082B1600082B1600089C
:1014A8002B16000857150008644B1B78002B40F0DA
:1014B800BA80032162480CF0A9FC604B01221A7023
:1014C800B1E0604B1B79012B12D1032001F05AF9CE
:1014D8000346FB64FB6C012B06D003215A480CF031
:1014E80095FCFB6CDBB2A4E0584B01221A702AE091
:1014F800574B1B781946564B5B781846544B9B78CC
:101508001C46534BDB781A46524B1B8801930092BA
:101518002346024650480CF079FC4E4B1B881A466D
:101528004B49032001F088F90346FB64FB6C012B4F
:1015380006D0032149480CF069FCFB6CDBB278E06B
:10154800424B01221A703D4B00221A7070E00320B2
:1015580001F04EFA0346FB64FB6C012B65D0FB6C73
:10156800DBB266E0374BDB78012B60D1354B1B795A
:10157800002B2BD13A4B1A8800230121032000F0BD
:101588007DFF0346FB64FB6C032B0ED0FA6C032132
:1015980034480CF03BFC032001F086F8F96C324823
:1015A8000CF034FCFB6CDBB243E02D4B1B880133A1
:1015B8009AB22B4B1A802A4B1B884CF2503293421A
:1015C8002BD9274B48F6B8021A8026E0244B1A88F4
:1015D80000230121032000F051FF0346FB64FB6C4C
:1015E800032B0AD0FA6C03211E480CF00FFC0320D1
:1015F80001F05AF8FB6CDBB21BE0194B1B88013376
:101608009AB2174B1A80164B1B884CF250329342F1
:1016180003D9134B48F6B8021A800A4B0222DA7033
:1016280005E000BF04E000BF02E000BF00E000BF2B
:10163800012318466C37BD4690BD00BF57020020F5
:10164800B01D01085C020020D01D010859020020CD
:10165800480200204C020020E41D01080C1E01086D
:1016680054020020781D0108201E010880B400AF34
:10167800024B1B781846BD4680BC704744020020C8
:1016880080B582B000AF78603960796805480CF0A1
:1016980083FC396804480CF07FFC00BF0837BD465E
:1016A80080BD00BF600B00206013002080B400AF35
:1016B800024B1846BD4680BC704700BF600B002037
:1016C80080B400AF024B1846BD4680BC704700BFCF
:1016D80060130020F0B5A7B004AF0346FB710023E8
:1016E8007B6507F158032E22002118460BF018FDE0
:1016F800874B00221A70FB79022B00F0B280022B74
:1017080000F30081002B02D0012B55D0FAE0814B69
:101718001B79002B16D107F154037F4918460CF0AA
:101728001BFC07F154031846FEF77AFD03469AB2EC
:1017380007F154031946022001F0D0F9774B012232
:101748001A70E0E007F13C031946012001F0E8FCBB
:1017580097F842301D4697F843301E4697F84430B4
:101768001A4697F8453019466D4B1B881B0A9BB2E1
:10177800DBB21C466A4B1B88DBB207F154000393AB
:1017880002940191009233462A4666490CF0E4FB24
:1017980007F154031846FEF743FD03469AB207F1D2
:1017A80054031946022001F099F95C4B01221A7082
:1017B8005D4B01221A70A6E0564B1B79002B16D1FF
:1017C80007F15403544918460CF0C6FB07F15403BB
:1017D8001846FEF725FD03469AB207F15403194649
:1017E800022001F07BF94D4B03221A708BE007F1C0
:1017F80024031946012001F093FC97F82A301D466E
:1018080097F82B301E4697F82C301A4697F82D304B
:101818001946434B1B881B0A9BB2DBB21C46404B44
:101828001B88DBB207F154000393029401910092E4
:1018380033462A463B490CF08FFB07F15403184600
:10184800FEF7EEFC03469AB207F15403194602204C
:1018580001F044F9314B03221A70334B01221A70FC
:1018680051E02C4B1B79002B16D107F154032A4960
:1018780018460CF071FB07F154031846FEF7D0FC2C
:1018880003469AB207F154031946022001F026F9DB
:10189800224B02221A7036E007F10C031946012088
:1018A80001F03EFCBB7C1D46FB7C1E463B7D1A4678
:1018B8007B7D19461A4B1B881B0A9BB2DBB21C4660
:1018C800174B1B88DBB207F1540003930294019174
:1018D800009233462A4613490CF03EFB07F15403A5
:1018E8001846FEF79DFC03469AB207F154031946C1
:1018F800022001F0F3F8094B02221A700A4B012268
:101908001A7000E000BF00BF8C37BD46F0BD00BFB5
:10191800440200205C020020301E01085C0B0020FD
:1019280054020020381E01085802002080B58CB0EF
:1019380000AFF860B9607A6000233B6107F11403D7
:1019480000221A605A609A60DA601A615A611A8332
:10195800FB681B78303B9BB21A46920013441A4628
:1019680091001A460B4613449B009AB2FB68013358
:101978001B78303B9BB2194689000B445B009BB235
:1019880013449AB2FB6802331B789BB213449BB290
:10199800303BFB85FB8D40F24B12934269D0B3F587
:1019A800A67F80F2D880962B00F0A380962BC0F2F9
:1019B800D280E62B00F3CF80C82BC0F2CC80C83B86
:1019C8001E2B00F2C88001A252F823F0D51A000895
:1019D8005F1B00085F1B00085F1B00085F1B0008F7
:1019E8005F1B00085F1B00085F1B00085F1B0008E7
:1019F8005F1B00085F1B00085F1B00085F1B0008D7
:101A08005F1B00085F1B00085F1B00085F1B0008C6
:101A18005F1B00085F1B00085F1B0008511A0008C5
:101A28005F1B00085F1B00085F1B00085F1B0008A6
:101A38005F1B0008571B00085F1B00085F1B00089E
:101A48005F1B0008A51A000807F11003BA6845498A
:101A580018460CF081FA07F110031846FEF7E0FB70
:101A680003469AB207F110031946022001F036F82E
:101A780072E007F110037A683B4918460CF06CFADB
:101A880007F110031846FEF7CBFB03469AB207F19D
:101A980010031946022001F021F85DE007F1100358
:101AA8004122324918460CF057FA314B00229A70FD
:101AB80007F110031846FEF7B3FB03469AB207F185
:101AC80010031946022001F009F845E0284B1B795C
:101AD800012B0AD1274B1B78002B06D0244B01225F
:101AE800DA70244B00221A7036E0234B01221A7058
:101AF80032E0224B1B78032B10D0032B22DC012B66
:101B080002D0022B14D01DE01C4B00221A701B4B74
:101B180001225A701A4B01221A7017E0174B002243
:101B28001A70164B03225A70154B01221A700DE0D9
:101B3800124B00221A70114B02225A70104B0122CC
:101B48001A7003E00F480CF0FBF900BF04E00A4BE1
:101B580001221A7000E000BF002318463037BD4646
:101B680080BD00BF541E0108601E01086C1E0108DC
:101B78005C02002058020020440200205C0B002078
:101B88005A020020781E010880B584B000AF786042
:101B9800224BDB689847214B5B6998471F4B5B6A70
:101BA800002B03D01D4B9B6A002B14D11B4B1B6AC7
:101BB8007A68120CD2B210469847184B1B6A7A689A
:101BC800120AD2B210469847144B1B6A7A68D2B2EE
:101BD8001046984711E07B681B0CDBB23B737B68AF
:101BE8001B0ADBB27B737B68DBB2BB730B4B9B6A54
:101BF80007F10C02032110469847084BDB69984708
:101C08000346FB73054B9B699847044B1B69984730
:101C1800FB7B18461037BD4680BD00BF040000207E
:101C280080B584B000AF78600B46FB70224BDB6850
:101C38009847214B5B6998477B6843F004037B60B6
:101C48001D4B9B6A002B19D11B4B1B6A7A68120C1F
:101C5800D2B210469847184B1B6A7A68120AD2B259
:101C680010469847144B1B6A7A68D2B210469847B8
:101C7800114B1B6AFA781046984713E07B681B0CD7
:101C8800DBB23B737B681B0ADBB27B737B68DBB21E
:101C9800BB73FB78FB73084B9B6A07F10C020421AA
:101CA80010469847044B9B699847034B1B69984714
:101CB80000BF1037BD4680BD0400002090B587B036
:101CC80000AFF860B9601346FB802B4BDB68984780
:101CD800294B5B699847284B5B6A002B03D0264B3E
:101CE8009B6A002B26D1244B1B6AFA68120CD2B2CD
:101CF80010469847204B1B6AFA68120AD2B210465F
:101D080098471D4B1B6AFA68D2B2104698470023C1
:101D1800FB820AE0184BDB69FA8AB9688C18984785
:101D280003462370FB8A0133FB82FA8AFB889A42B6
:101D3800F0D317E0FB681B0CDBB23B74FB681B0A93
:101D4800DBB27B74FB68DBB2BB740B4B9B6A07F19D
:101D58001002032110469847074B5B6AFA88114620
:101D6800B8689847044B9B699847034B1B69984789
:101D780000BF1C37BD4690BD0400002080B586B06A
:101D880000AFF860B9601346FB802B4BDB689847BF
:101D9800294B5B699847FB6843F00403FB60264BBB
:101DA8009B6A002B26D1244B1B6AFA68120CD2B20C
:101DB80010469847204B1B6AFA68120AD2B210469E
:101DC80098471D4B1B6AFA68D2B210469847002301
:101DD800FB820AE0184B1B6AFA8AB9680A4412782F
:101DE80010469847FB8A0133FB82FA8AFB889A429D
:101DF800F0D317E0FB681B0CDBB23B74FB681B0AD3
:101E0800DBB27B74FB68DBB2BB740B4B9B6A07F1DC
:101E18001002032110469847074B9B6AFA8811461F
:101E2800B8689847044B9B699847034B1B699847C8
:101E380000BF1837BD4680BD0400002090B585B0AE
:101E480000AF0346FB710023FB810023BB81FB79B4
:101E58009B000133DB0003F500531846FFF794FE9F
:101E68000346BB81BB891B029CB2FB799B000133F3
:101E7800DB0003F504531846FFF786FE03469BB2C2
:101E88002344BB81BB89002B1AD0FB799B0001330B
:101E9800DB0003F500531846FFF776FE0346FB8187
:101EA800FB891B029CB2FB799B000133DB0003F525
:101EB80004531846FFF768FE03469BB22344FB8190
:101EC800FA89BB899A42C2D1FB8918461437BD46A4
:101ED80090BD90B585B000AF0346FB710023FB8130
:101EE8000023BB81FB799B000133DB0003F518530A
:101EF8001846FFF749FE0346BB81BB891B029CB20B
:101F0800FB799B000133DB0003F51C531846FFF7F0
:101F18003BFE03469BB22344BB81BB89002B1AD0EE
:101F2800FB799B000133DB0003F518531846FFF7D4
:101F38002BFE0346FB81FB891B029CB2FB799B00AD
:101F48000133DB0003F51C531846FFF71DFE03465B
:101F58009BB22344FB81FA89BB899A42C2D1FB898F
:101F680018461437BD4690BD90B585B000AF0346FE
:101F78003960FB711346BB800023FB810023BB60E3
:101F8800BB88002B48D0FB799B000133DB0003F5AD
:101F980010531846FFF7F8FD03469BB21B029CB28C
:101FA800FB799B000133DB0003F514531846FFF758
:101FB800EBFD03469BB22344FB81FB891B02FA79A4
:101FC80092000232D2001344BB60BB881A463968BB
:101FD800B868FFF7D3FEFA89BB881344FB81FB7905
:101FE8009B000133DB0003F510531A46FB891B0ADB
:101FF8009BB2DBB219461046FFF712FEFB799B0035
:102008000133DB0003F514531A46FB89DBB219468A
:102018001046FFF705FE00E000BF1437BD4690BD2F
:1020280090B585B000AF03463960FB711346BB809D
:102038000023FB810023BB60BB88002B48D0FB79C1
:102048009B000133DB0003F520531846FFF79CFD86
:1020580003469BB21B029CB2FB799B000133DB0059
:1020680003F524531846FFF78FFD03469BB223441C
:10207800FB81FB891B02FA7992000332D2001344D8
:10208800BB60BB881A463968B868FFF717FEFA893B
:10209800BB881344FB81FB799B000133DB0003F50C
:1020A80020531A46FB891B0A9BB2DBB2194610461D
:1020B800FFF7B6FDFB799B000133DB0003F52453E2
:1020C8001A46FB89DBB219461046FFF7A9FD00E066
:1020D80000BF1437BD4690BD90B585B000AF0F4B1B
:1020E8003C460FCB84E80F0000F0BCF90C490D48C2
:1020F80000F00CFF0C490D4800F0E4FE3B46194681
:10210800012000F02FFF0346B3F1FF3F02D108483A
:102118000BF016FF00BF1437BD4690BDAC1F010879
:10212800F1230008252400086D2400085524000820
:10213800901F0108B0B594B000AFF860B9607A603C
:102148003B600023FB6307F1400300221A605A60DA
:102158009A60DA600023BB6207F12C0300221A6040
:102168005A609A60DA6000237B6107F11803002245
:102178001A605A609A60DA60BB6807F13C041D4631
:1021880028686968AA68EB680FC4286920607B68BA
:1021980007F128041D4628686968AA68EB680FC417
:1021A800286920603B6807F114041D46286869689F
:1021B800AA68EB680FC42869206007F13C03184639
:1021C80000F076F8F86800F09DF807F12803184643
:1021D80000F0B6F807F11403184600F0DBF80449DC
:1021E800002000F09DFF00BF5037BD46B0BD00BFC6
:1021F800601B0020B0B58AB004AF3B4619460120E9
:1022080000F08EFF24480BF09BFEBB791946FB7942
:102218001A463B7A18467B7A009303461F480BF010
:10222800F5FD3B7818467B781C46BB781D46FB7845
:102238003A7979790291019200932B462246014618
:1022480017480BF0E3FDBB7B1946FB7B1A463B7C2A
:1022580018467B7C0093034612480BF0D7FDBB7AE7
:102268001946FB7A1A463B7B18467B7B009303464C
:102278000D480BF0CBFDBB7C1946FB7C1A463B7D19
:1022880018467B7D0093034608480BF0BFFD00BF4E
:102298001837BD46B0BD00BFBC1F0108D01F0108DC
:1022A800F01F0108202001084020010860200108D3
:1022B80080B584B000AF78600023FB720F4978685E
:1022C8000CF098FCF86011E0F8680AF0EDFE0246A0
:1022D800FB7AD1B20A4A13440A469A710749002088
:1022E8000CF088FCF860FB7A0133FB72FB68002B6A
:1022F800EAD100BF00BF1037BD4680BD802001086D
:10230800601B002080B485B000AF78600023FB73A9
:102318000BE0FB7B7A68134493F90020FB7BD1B276
:10232800064AD154FB7B0133FB73FB7B052BF0D9A9
:1023380000BF00BF1437BD4680BC7047601B00203B
:1023480080B584B000AF78600023FB720F497868CD
:102358000CF050FCF86011E0F8680AF0A5FE02469F
:10236800FB7AD1B20A4A13440A469A7207490020F6
:102378000CF040FCF860FB7A0133FB72FB68002B21
:10238800EAD100BF00BF1037BD4680BD80200108DC
:10239800601B002080B584B000AF78600023FB721A
:1023A8000F4978680CF026FCF86011E0F8680AF02C
:1023B8007BFE0246FB7AD1B20A4A13440A469A7354
:1023C800074900200CF016FCF860FB7A0133FB7219
:1023D800FB68002BEAD100BF00BF1037BD4680BDA7
:1023E80080200108601B002080B582B000AF034642
:1023F800FB71F91D64230122074805F087FA00BF25
:10240800054805F08EFE0346002BF9D000BF00BF3B
:102418000837BD4680BD00BF2C34002080B582B08F
:1024280000AFF91D64230122074805F0B2FB00BF85
:10243800054805F076FE0346002BF9D0FB791846CF
:102448000837BD4680BD00BF2C34002080B500AFE2
:1024580000224FF48051024803F0B7F900BF80BD55
:10246800000C014080B500AF01224FF480510248B2
:1024780003F0ABF900BF80BD000C014090B585B0FA
:1024880000AF0446084611461A462346FB71034628
:10249800BB710B46BB801346FB70FB79082B02D936
:1024A8004FF0FF33F2E0BB79012B05D0002B11DD93
:1024B800023B022B0ED810E007F10C030422194648
:1024C8004FF47060FFF7FAFBFB68002B05D16FF043
:1024D8000203DBE06FF00403D8E000BFFB7803F0F1
:1024E8000403002B02D06FF00503CFE0FB78002B2C
:1024F80025D0BB79012B02D0022B08D024E0FB7831
:1025080003F02103002B1CD16FF00503BEE0FB781C
:1025180003F02003002B06D097F90330002B02DBD1
:102528006FF00503B2E0FB7803F01003002B0AD02C
:1025380097F90330002B06DB6FF00503A6E000BF18
:1025480002E000BF00E000BFFB79184600F0ACF8DD
:10255800FB799B000133DB00184697F9033023F021
:102568000F035AB297F9063013435BB2DBB2194630
:10257800FFF756FBBB88002B10D1464B1B885A1C13
:1025880091B2444A1180BB80424B1B884FF6F072CF
:10259800934203D13F4B4FF440421A80FB799B0092
:1025A8000133DB0003F580631A46BB881B0A9BB224
:1025B800DBB219461046FFF733FBFB799B0001336A
:1025C800DB0003F5A0631A46BB88DBB21946104648
:1025D800FFF726FBFB799B000133DB0003F58073D3
:1025E80001211846FFF71CFB00BFFB799B00013354
:1025F800DB0003F580731846FFF7C6FA0346002B85
:10260800F3D1FB79012202FA03F31BB2DB431AB2BE
:10261800214B1B881BB213401BB29AB21E4B1A8067
:10262800FB7803F00102FB7902FA03F31AB21A4BA2
:102638001B881BB213431BB29AB2174B1A80FB7943
:10264800012202FA03F31BB2DB431AB2134B1B88B5
:102658001BB213401BB29AB2104B1A80FB79104A76
:10266800002122F81310FB790E4A0021D15400BF33
:10267800FB799B000133DB0003F540731846FFF735
:1026880083FA0346002BF3D097F90730184614371E
:10269800BD4690BD02000020781B00207A1B002058
:1026A8007C1B00208C1B002080B582B000AF034645
:1026B800FB71FB79082B02D94FF0FF3355E0FB790A
:1026C8009B000133DB0003F5807310211846FFF7E8
:1026D800A7FA00BFFB799B000133DB0003F5807389
:1026E8001846FFF751FA0346002BF3D1FB799B00FC
:1026F8000133DB0003F500731F211846FFF790FA3A
:10270800FB79012202FA03F31BB2DB431AB2194B1D
:102718001B881BB213401BB29AB2164B1A80FB7966
:10272800012202FA03F31BB2DB431AB2124B1B88D5
:102738001BB213401BB29AB20F4B1A80FB790F4A97
:10274800002122F81310FB790D4A0021D15400BF53
:10275800FB799B000133DB0003F540731846FFF754
:1027680013FA0346002BF3D1012318460837BD4658
:1027780080BD00BF781B00207A1B00207C1B002036
:102788008C1B002080B582B000AF0346FB71FB793B
:10279800082B02D94FF0FF3349E0FB799B00013346
:1027A800DB001846FFF7F0F9034603F00F03012B8F
:1027B80002D06FF004033AE0FB799B000133DB00A1
:1027C80003F540731846FFF7DFF90346132B02D0D1
:1027D8006FF002032BE0FB799B000133DB0003F56C
:1027E800807302211846FFF71BFA00BFFB799B0094
:1027F8000133DB0003F580731846FFF7C5F903467C
:10280800002BF3D106E0FB791846FFF74DFF6FF078
:1028180003030CE0FB799B000133DB0003F54073F5
:102828001846FFF7B1F90346142BECD101231846DB
:102838000837BD4680BD000080B584B000AF0346B0
:102848003960FB711346BB80FB79082B02D94FF026
:10285800FF33C6E0FB799B000133DB001846FFF726
:1028680093F9034603F00F03012B02D06FF0040322
:10287800B7E0FB799B000133DB0003F54073184692
:10288800FFF782F90346132B02D06FF00203A8E08A
:102898003B681B78FB60FB681B023A6801321278C0
:1028A8001344FB60FB681B023A6802321278134437
:1028B800FB60FB681B023A68033212781344FB6022
:1028C800FB68B3F1FF3F02D0FB68002B02D16FF029
:1028D8000B0386E0BB88002B02D16FF00A0380E06F
:1028E800FB799B000133DB0003F540630422396860
:1028F8001846FFF743FAFB799B000133DB0003F529
:1029080080531A46BB881B0A9BB2DBB21946104695
:10291800FFF786F9FB799B000133DB0003F5885349
:102928001A46BB88DBB219461046FFF779F9FB79DE
:102938009B000133DB0003F5807304211846FFF781
:102948006FF900BFFB799B000133DB0003F580734F
:102958001846FFF719F90346002BF3D1234B1B88C0
:102968001A46FB7942FA03F303F00103002B2BD03C
:10297800002336E0FB799B000133DB0003F500738D
:102988001846FFF701F9034603F00803002B0CD0A3
:10299800FB799B000133DB0003F50073082118461F
:1029A800FFF73EF96FF00C031BE0FB799B00013346
:1029B800DB0003F540731846FFF7E6F80346002BE3
:1029C80002D16FF003030CE0FB799B000133DB00BD
:1029D80003F540731846FFF7D7F80346172BC9D1FC
:1029E800012318461037BD4680BD00BF781B002064
:1029F80080B582B000AF0346FB71FB79082B02D982
:102A08004FF0FF3362E0FB799B000133DB0018468F
:102A1800FFF7BAF8034603F00F03012B02D06FF05B
:102A2800040353E0FB799B000133DB0003F580735B
:102A380008211846FFF7F4F800BFFB799B00013323
:102A4800DB0003F580731846FFF79EF80346002B5A
:102A5800F3D1FB79012202FA03F31BB2DB431AB26A
:102A68001C4B1B881BB213401BB29AB2194B1A801D
:102A7800194B1B881A46FB7942FA03F303F001034A
:102A8800002B16D0002321E0FB799B000133DB00EB
:102A980003F500731846FFF777F8034603F00803B9
:102AA800002B06D0FB791846FFF7FEFD6FF00C03EC
:102AB8000CE0FB799B000133DB0003F540731846FB
:102AC800FFF762F80346002BDED1012318460837CA
:102AD800BD4680BD7A1B0020781B002080B584B0DD
:102AE80000AF03463960FB711346BB800023FB73BC
:102AF8000023BB81FB79082B02D94FF0FF33DEE0BE
:102B0800FB799B000133DB001846FFF73DF80346CD
:102B180003F00F03012B02D06FF00403CFE0BB8852
:102B2800002B02D16FF00D03C9E0FB799B00013344
:102B3800DB0003F540731846FFF726F80346FB73DE
:102B4800FB7B172B05D0FB7B1C2B02D06FF00603F9
:102B5800B5E05D4B1B881A46FB7942FA03F303F094
:102B68000103002B39D0FB799B000133DB0003F50F
:102B780000731846FFF708F8034603F01F03FB73BA
:102B8800FB7B03F01003002B19D0FB799B0001336A
:102B9800DB0003F5007310211846FFF741F8FB79B5
:102BA800012202FA03F31BB2DB431AB2464B1B881D
:102BB8001BB213401BB29AB2434B1A800DE0FB7B49
:102BC80003F00803002B06D0FB791846FFF76CFDCD
:102BD8006FF00C0373E0002371E0FB799B00013375
:102BE800DB0003F5F8531846FEF7CEFF03469BB209
:102BF8009B02BB81BA88BB899A4201D9BB89BB8039
:102C0800FB791846FFF71AF90346BB81FB799B004D
:102C18000133DB0003F540731846FEF7B5FF0346A2
:102C2800FB73FB7B172B09D0FB7B1C2B06D0FB7996
:102C38001846FFF739FD6FF0060340E0234B1B8869
:102C48001A46FB7942FA03F303F00103002B05D07F
:102C5800BA88BB899A4201D9002330E0BA88BB8977
:102C68009A4200D9CCE700BFBA88FB793968184680
:102C7800FFF77AF9FB799B000133DB0003F58073DA
:102C880020211846FEF7CCFF00BFFB799B000133DB
:102C9800DB0003F580731846FEF776FF0346002B2A
:102CA800F3D1FB79012202FA03F31AB2064B1B880F
:102CB8001BB213431BB29AB2034B1A80BB88184647
:102CC8001037BD4680BD00BF7A1B0020781B00204E
:102CD80090B585B000AF03463960FB711346BB80E1
:102CE8000023FB730023BB81FB79082B02D94FF02B
:102CF800FF339CE0FB799B000133DB001846FEF7AD
:102D080043FF034603F00F03012B02D06FF00403C7
:102D18008DE0BB88002B02D16FF00D0387E0FB79B3
:102D28009B000133DB0003F5F0531846FEF72CFF38
:102D380003469BB29B02BB81BA89BB889A4201D2E7
:102D4800BB89BB80FB791846FFF7C3F80346BB81F4
:102D5800FB799B000133DB0003F540731846FEF74F
:102D680013FF0346FB73FB7B172B26D0FB7B1C2B27
:102D78001CD1BB89002B33D1FB791846FFF75EF8CD
:102D880003461C46FB799B000133DB0003F5F8532F
:102D98001846FEF7F9FE03469B029C420DD1FB79CB
:102DA8001846FFF781FC6FF0060340E0FB791846F0
:102DB800FFF77AFC6FF0060339E01F4B1B881A46B1
:102DC800FB7942FA03F303F00103002B04D0BB891B
:102DD800002B01D100232AE0BB89002B02D1B1E7E7
:102DE80000BF00E000BFBA89BB889A4201D2BB8904
:102DF800BB80BA88FB7939681846FFF711F9FB7967
:102E08009B000133DB0003F5807340211846FEF771
:102E180007FF00BFFB799B000133DB0003F58073DC
:102E28001846FEF7B1FE0346002BF3D1BB881846BF
:102E38001437BD4690BD00BF781B002080B400AF9A
:102E480000BFBD4680BC704780B400AF00BFBD4620
:102E580080BC704780B400AF00BFBD4680BC7047DF
:102E680080B400AF00BFBD4680BC704780B483B05B
:102E780000AF78607B681B78DBB218460C37BD461C
:102E880080BC704780B483B000AF78600B46FB709D
:102E98007B68FA781A7000BF0C37BD4680BC704753
:102EA80080B400AF00231846BD4680BC704780B48C
:102EB80083B000AF0346FB7100BF0C37BD4680BC32
:102EC8007047000080B483B000AF786039607B68D9
:102ED800002B02D03B68002B06D1094B094A5A61E6
:102EE800074B094A9A6106E0054A7B685361044A20
:102EF8003B68936100BF00BF0C37BD4680BC70477C
:102F0800040000205D2E0008692E000880B483B0FC
:102F180000AF7860396000BF0F4B1B8803F4007363
:102F2800002BF9D07B68002B02D03B68002B06D120
:102F3800094B0A4ADA61084B094A1A6206E0064A4E
:102F48007B68D361044A3B68136200BF00BF0C373B
:102F5800BD4680BC704700BF04000020A92E0008B1
:102F6800B72E000890B587B000AF03463960FB71F3
:102F78000023FB750023FB6000233B61FB790F2BCB
:102F880000F2C28001A252F823F000BFD52F00083A
:102F9800DB2F000807300008FB2F00081530000859
:102FA800213000082F300008553000087B30000819
:102FB800B5300008BB300008C330000817310008DE
:102FC800CB300008D9300008F530000800F0E6F8EA
:102FD8009EE03B68002B04D03B68FB60FB6808332D
:102FE8003B61FB683A691146184600F023F903462D
:102FF8008FE03B681B88184600F0A8F988E000F0CD
:10300800C3F903461A463B681A8081E03B681B886F
:10301800184600F0DEF97BE000F0F6F903461A46A0
:103028003B681A8074E03B681B881B0A9BB2DBB2C2
:1030380019464FF49850FEF7F3FD3B681B88DBB246
:1030480019464FF4A050FEF7EBFD61E04FF498509D
:10305800FEF79AFD03469BB21B029CB24FF4A050A8
:10306800FEF792FD03469BB223449AB23B681A804E
:103078004EE02A4B9A783B681A703B680133274A1E
:10308800D2781A703B680233244A12791A703B6866
:103098000333224A52791A703B6804331F4A9279E3
:1030A8001A703B68053300221A7031E000F0FEF90F
:1030B8002EE0386800F021FA2AE0386800F05FFA5C
:1030C80026E03B681B78184600F0C2FA034620E069
:1030D80000F0D3F90346FB75FB7DFF2B02D14FF0BF
:1030E800FF3316E03B68FA7D1A7011E000F0AFF983
:1030F8000346FB75FB7DFF2B02D14FF0FF3308E041
:103108003B68FA7D1A7003E04FF0FF3301E000BF1F
:10311800002318461C37BD4690BD00BF04000020A0
:1031280080B582B000AF03463960FB71FB79052B8F
:103138002CD801A252F823F0593100086131000857
:103148006931000877310008853100088D310008A1
:10315800386800F0C7FA1CE0386800F003FB18E094
:103168003B681B78184600F03DFB034612E000F070
:103178005BFB03461A463B681A700AE0386800F0A1
:103188005BFB06E0386800F078FB02E04FF0FF33A5
:1031980000E0002318460837BD4680BD80B586B0DC
:1031A80000AF3B1D062219464FF41060FEF786FD5E
:1031B80007F11403042219464FF48070FEF77EFDD0
:1031C80007F11003042219464FF4A060FEF776FDBC
:1031D80007F10C03042219464FF47060FEF76EFDE8
:1031E80080210020FEF71CFD0020FEF7CDFC3B1DD2
:1031F800062219464FF41060FEF7C0FD07F11403CC
:10320800042219464FF48070FEF7B8FD07F1100349
:10321800042219464FF4A060FEF7B0FD07F10C0335
:10322800042219464FF47060FEF7A8FD00BF183756
:10323800BD4680BD80B584B000AF7860396000239A
:10324800BB73FFF7ABFF7B68002B3BD00023BB733E
:103258000023FB7315E097F90F307A6813441A7846
:10326800BB7B1344DBB2BB7397F90E30102B02DD26
:103278004FF0FF3366E097F90F30DBB20133DBB272
:10328800FB7397F90F30072BE5DD0023FB7315E07F
:1032980097F90F309B000133DB0003F5F85318460C
:1032A80097F90F307A6813441B781946FEF7B8FC73
:1032B80097F90F30DBB20133DBB2FB7397F90F30AC
:1032C800072BE5DD3B68002B3BD00023BB730023B5
:1032D800FB7315E097F90F303A6813441A78BB7BF3
:1032E8001344DBB2BB7397F90E30102B02DD4FF09D
:1032F800FF3327E097F90F30DBB20133DBB2FB7302
:1033080097F90F30072BE5DD0023FB7315E097F9DC
:103318000F309B000133DB0003F5F053184697F993
:103328000F303A6813441B781946FEF779FC97F971
:103338000F30DBB20133DBB2FB7397F90F30072B89
:10334800E5DD002318461037BD4680BD80B584B042
:1033580000AF0346FB80FB88FB73FB881B0A9BB20C
:10336800BB73FB7B23F00F03DBB219464FF4A85065
:10337800FEF756FCBB7B19464FF4B850FEF750FCDD
:1033880000BF1037BD4680BD80B582B000AF0023B6
:10339800FB710023BB710023BB804FF4A850FEF7DC
:1033A800F3FB034623F00F03FB714FF4B850FEF70D
:1033B800EBFB0346BB71BB79BB80BB881B029AB28F
:1033C800FB799BB21344BB80BB8818460837BD46BF
:1033D80080BD80B584B000AF0346FB80FB88FB73DB
:1033E800FB881B0A9BB2BB73FB7B19464FF4B0509A
:1033F800FEF716FCBB7B19464FF4C050FEF710FCD5
:1034080000BF1037BD4680BD80B582B000AF002335
:10341800FB710023BB710023BB804FF4B050FEF753
:10342800B3FB0346FB714FF4C050FEF7ADFB0346F8
:10343800BB71BB79BB80BB881B029AB2FB799BB27C
:103448001344BB80BB8818460837BD4680BD80B58D
:1034580082B000AF0023FB714FF43850FEF794FBA5
:10346800034603F00103002B01D00123FB7197F9F8
:10347800073018460837BD4680BD80B582B000AF1A
:103488000023FB714FF43850FEF77EFB034603F030
:103498003803302B02D10123FB7101E00023FB71BB
:1034A80097F9073018460837BD4680BD80B582B009
:1034B80000AF4FF43850FEF767FB0346FB71FB790A
:1034C80003F07F03FB71FB7919464FF43850FEF780
:1034D800A7FB4FF43850FEF757FB0346FB71FB7907
:1034E80063F07F03FB71FB7919464FF43850FEF700
:1034F80097FB00BF0837BD4680BD80B584B000AFDC
:1035080078600023FB737B681B78012B04D1FB7B5D
:1035180043F04003FB7303E0FB7B23F04003FB73A2
:103528007B685B78012B04D1FB7B43F03803FB738A
:1035380019E07B68DB78012B0DD17B689B78012B28
:1035480004D1FB7B43F01803FB730CE0FB7B43F0D7
:103558000803FB7307E07B689B78012B03D1FB7B97
:1035680043F01003FB73FB7B19464FF43850FEF70A
:1035780057FBFFF79BFF00BF1037BD4680BD80B5E6
:1035880084B000AF78600023FB734FF43850FEF727
:10359800FBFA0346FB73FB7B9B11DBB203F00103D1
:1035A800DAB27B681A70FB7B03F03803202B01D05A
:1035B800382B03D17B6801225A7003E07B68002214
:1035C8005A7000BFFB7B03F03803103B102B8CBFF5
:1035D80001220022D2B2002A11D1012202FA03F3F9
:1035E80003F0013323F08073002B14BF0123002361
:1035F800DBB2002B03D07B6801229A7003E07B6862
:1036080000229A7000BFFB7B03F03803083B182B9D
:103618008CBF01220022D2B2002A11D1012202FA63
:1036280003F303F0013323F48073002B14BF012349
:103638000023DBB2002B03D07B680122DA7003E0A1
:103648007B680022DA7000BF00BF1037BD4680BD1E
:1036580080B584B000AF0346FB710023FB734FF4C1
:103668003850FEF791FA0346FB73FB7B03F04003E7
:10367800002B02D14FF0FF3330E0FB7B23F03803FF
:10368800FB73FB79012B04D1FB7B43F03003FB7305
:1036980003E0FB7B43F03803FB73FB7B19464FF4D5
:1036A8003850FEF7BDFAFFF701FF4FF43850FEF728
:1036B8006BFA0346FB73FB79012B06D1FB7B03F006
:1036C8003003002B08D0002308E0FB7B03F038030D
:1036D800002B01D0002301E04FF0FF3318461037CC
:1036E800BD4680BD80B582B000AF78607B68062299
:1036F80019464FF41060FEF741FB7B680E33042235
:1037080019464FF48070FEF739FB7B680A330422B0
:1037180019464FF4A060FEF731FB7B68063304229C
:1037280019464FF47060FEF729FB7B689A7C0B4BB7
:103738001A707B68DA7C094B5A707B681A7D074BD4
:103748009A707B685A7D054BDA707B689A7D044BCA
:103758001A7000BF0837BD4680BD00BF941B00200B
:10376800981B002080B582B000AF78607B68062285
:1037780019464FF41060FEF7A1FA7B680E33042255
:1037880019464FF48070FEF799FA7B680A330422D1
:1037980019464FF4A060FEF791FA7B6806330422BD
:1037A80019464FF47060FEF789FA0C4B1A787B685B
:1037B8009A740A4B5A787B68DA74084B9A787B6853
:1037C8001A75064BDA787B685A75054B1A787B6848
:1037D8009A7500BF0837BD4680BD00BF941B002006
:1037E800981B002080B584B000AF0346FB7100230E
:1037F800FB73FB7923F03A03002B02D04FF0FF3321
:103808000EE00020FEF7C0F90346FB73FA7BFB7954
:103818001343FB73FB7B19460020FEF701FA0023D4
:1038280018461037BD4680BD80B500AF0020FEF7B2
:10383800ABF90346184680BD80B582B000AF78600A
:103848007B681B7819464FF4D850FEF7E9F97B6876
:103858005B881B0A9BB2DBB219464FF4C850FEF7CF
:10386800DFF97B685B88DBB219464FF4D050FEF76E
:10387800D7F900BF0837BD4680BD90B583B000AF0B
:1038880078604FF4D850FEF77FF903461A467B68F4
:103898001A704FF4C850FEF777F903469BB21B0223
:1038A8009CB24FF4D050FEF76FF903469BB2234405
:1038B8009AB27B685A8000BF0C37BD4690BD0000A5
:1038C80080B582B000AF0023FB713B4619463048F3
:1038D80003F015F83B78012B0ED17B78DC2B0BD14C
:1038E800BB78902B08D1FB78952B05D129480AF095
:1038F80027FB0123FB7146E03B78012B0ED17B7837
:10390800F12B0BD1BB78802B08D1FB781D2B05D16F
:1039180021480AF015FB0123FB7134E03B78EC2BBE
:103928000CD17B78F12B09D1BB78802B06D1FB78A1
:10393800152B03D119480AF003FB24E03B78EC2B44
:103948000ED17B78F12B0BD1BB78002B08D1FB78FB
:10395800952B05D112480AF0F3FA0123FB7112E006
:103968003B78AD2B0CD17B78F12B09D1BB78802B20
:1039780006D1FB781D2B03D10A480AF0E1FA02E0D0
:1039880009480AF0DDFAFB7918460837BD4680BDBC
:10399800CC34002084200108A4200108C420010898
:1039A800D8200108EC2001080421010880B483B064
:1039B80000AF00233B6000237B60104B70221A701D
:1039C8004FF0E0431B78DBB23B603B6803F0010338
:1039D800002B02D001237B6009E03B6803F0400321
:1039E800002B02D040237B6001E000237B607B68D2
:1039F80018460C37BD4680BC704700BF00000170F8
:103A080080B582B000AF4FF080737B6040233B608D
:103A1800FFF7CCFF386005E0FFF7C8FF38607B6828
:103A2800013B7B603B68402B02D07B68002BF3D1C5
:103A38007B68002B02D14FF480633B603B681846DB
:103A48000837BD4680BD000080B582B000AF3B4658
:103A580083E80300134B60221A703B88DAB2BB88F4
:103A680019467B889B020B44DBB29B01DBB20E49F3
:103A78001344DBB20B703B881A46BB8819467B8817
:103A88009B020B449B0113441A12074BD2B21A70C3
:103A9800044BD0221A70FFF7B3FF034618460837C5
:103AA800BD4680BD000001700000027080B582B084
:103AB80000AF00237B800023BB8000233B803B4674
:103AC80093E80300FFF7C0FFBB8801339BB2BB80BC
:103AD800BB88B3F5806FF2D103480AF031FA00BF12
:103AE80000BF0837BD4680BD1421010880B582B0EB
:103AF80000AF0346FB710B4B01221A70FFF7E0FE83
:103B08000346012B07D1074B1B78DBB223F00103D7
:103B1800DAB2044B1A70034B1B78DBB2184608372D
:103B2800BD4680BD4400002080B483B000AF03468A
:103B3800FB71044B1B78DBB218460C37BD4680BCC2
:103B4800704700BF4400002080B586B000AFB96060
:103B58007A603B600346FB737B68B3F5803F0CD209
:103B68007B689BB203F03F039BB23B8200237B82BE
:103B78007B689B099BB2BB820BE07B689BB203F01E
:103B88003F039BB23B8201237B827B68DB099BB2AC
:103B9800BB8207F110010123BA68044802F034FF20
:103BA800002318461837BD4680BD00BFCC3400201E
:103BB80080B58CB000AFB9607A603B600346FB7398
:103BC80000237B840023FB8500233B8400233B8266
:103BD80000237B8240F2FF33BB827B68FB853B6816
:103BE8009AB27B689BB213449BB2013B3B847B68CF
:103BF800002B05D14A4B1B680133494A136085E005
:103C0800474B1B6840F2C33293427FD1444B00229A
:103C18001A607BE0FB8D9B099BB29B019BB2FA8DDE
:103C2800D31A7B8400237B83FB8D9B099BB2BB83C8
:103C38003B4B1B68002B14D0394B1B68194639487D
:103C48000AF0E4F8364B1B680133354A13607B8C65
:103C58003B8307F118010123BA68334803F036F8AB
:103C680051E007F1100393E80300FFF7EDFE00238E
:103C7800BB6222E0BB6A9BB23B82BB6A9BB23B83BE
:103C880007F118010123294A274802F0BDFE7B8C61
:103C9800BA6A9A4207D107F110010123BA6822488B
:103CA80003F014F806E007F1100101231F4A1E482B
:103CB80003F00CF8BB6A0133BB62BB6A3F2BD9DD4A
:103CC80007F1180393E80300FFF7BEFE00237B62A9
:103CD80016E07B6A9BB23B827B6A9BB23B8307F10F
:103CE80010010123114A104802F08EFE07F1180155
:103CF80001230E4A0C4802F0E9FF7B6A01337B621C
:103D08007B6A3F2BE5DDFB8D0133FB85FA8D3B8C10
:103D18009A427FF67FAF002318463037BD4680BDF4
:103D28009C1B00202C210108CC340020A01B002063
:103D380080B586B000AF03463A60FB710B46BB7195
:103D48000123FB750023BB820023FB81BB79042B75
:103D58005AD801A252F823F0753D00087B3D0008AF
:103D68008F3D0008A33D0008B73D00080023FB7500
:103D780052E03B684FF480321A602A480AF0E0F8B3
:103D88000023FB7548E03B684FF400621A60264840
:103D98000AF0D6F80023FB753EE03B6840F2FF329C
:103DA8001A6022480AF0CCF80023FB7534E03B681F
:103DB8001B88BB823B685B88FB8100233B611CE05E
:103DC8003B699AB2BB8A1344BB82BB8A9B099BB2EC
:103DD8009B019BB2BA8AD31A9BB23B8100237B8199
:103DE800BB8A9B099BB2BB8107F1080393E80300D8
:103DF800FFF72AFE3B6901333B61FB893A699A4226
:103E0800DEDB0023FB7507E0BB791946084809F09B
:103E1800FDFF0423FB7500BFFB7D18461837BD4620
:103E280080BD00BF40210108542101086821010814
:103E38007821010880B582B000AF104B1A68104B8A
:103E48001340B3F1005F15D10E480AF079F80E4B14
:103E58001B680E4A13600D4B1B681A460C4B1A6000
:103E6800064B1B687B607B6883F3088800BF084BA0
:103E78001B68984700BF0837BD4680BD007003081F
:103E88000000FE2F8821010804700308A0230020E9
:103E9800A423002080B582B000AF214B3B603B4695
:103EA800204A21492148FCF77FFF0346FB71FB7933
:103EB800012B2ED1FDF7DAFB0346002B29D01C4B32
:103EC8001B78032B27D801A252F823F0E53E0008FF
:103ED800F33E0008093F0008153F00080020FDF7E1
:103EE800F9FB134B01221A7016E012491148FDF72D
:103EF800C7FB0120FDF7EEFB0D4B02221A700BE009
:103F080000F01AF80A4B03221A7005E0FFF792FF37
:103F180002E000BF00E000BF00BF0837BD4680BD1B
:103F2800C0A8004BA0210108A8210108A82300204F
:103F3800A82B0020B021010880B5ADF5866D00AF33
:103F48000023C7F8083407F20C4300221A605A60AD
:103F58009A60DA6007F58663A3F5856300221A6024
:103F680004334FF47F720021184609F0D9F8002372
:103F7800C7F824340023C7F82C34394BC7F8283441
:103F880000F076F8364800F081F807F58163354A85
:103F98003549184609F0E0FF07F5816313221946F1
:103FA800324807F0B9F9034687F8233497F82334E1
:103FB800002B4FD12D4BD3F80C38C7F824343B1DB8
:103FC80007F108014FF48062284807F026FC0346F1
:103FD80087F8233497F82334002B2ED107F586630E
:103FE800A3F22C431B68D7F82C241344C7F82C34AD
:103FF80007F10803C7F81C34D7F81C1407F58663C3
:10400800A3F22C431B689B081A46D7F8280400F033
:1040180071F80346002B12D107F58663A3F22C43EF
:104028001B68D7F828241344C7F82834D7F82C2459
:10403800D7F824349A4204D2C1E700BF02E000BF97
:1040480000E000BF07F58163184608F0EFF807485D
:1040580007F0B5FF00BF07F58667BD4680BD00BF06
:1040680000700308B0210108C4210108AC2B00200E
:1040780080B500AF00F022FF034B3422DA6000F075
:1040880057FF00BF80BD00BF0020024080B58AB046
:1040980000AF786000233B620023BB610023FB77FD
:1040A80000237B6200F00AFF7B68C3F1006303F51D
:1040B8000023DB0A3B620023BB607B683B61012372
:1040C800FB603B6A7B6107F1180207F108031146A0
:1040D800184601F05BF80346FB7700F029FFFB7FE9
:1040E800002B01D001237B627B6A18462837BD4626
:1040F80080BD0000B0B586B000AFF860B9607A60E6
:1041080000237B6100F0DAFE00233B6124E03B6979
:104118009B00BA6813441B6800221C4615462246B9
:104128002B46F968022000F03BFE0346002B0ED117
:10413800FB681A683B699B00B9680B441B689A4284
:1041480001D002237B61FB680433FB6001E0032399
:104158007B613B6901333B613A697B689A4203D2D0
:10416800FB68054A9342D2D900F0E2FE7B69184603
:104178001837BD46B0BD00BFFCFF070880B584B046
:1041880000AF0023FB6000237B6000233B811F4BB3
:104198003B6000F09BFC00F045F800F017F900F0D8
:1041A800B5F800F0E9F800F083F800F091F904F0B0
:1041B8003FFBFDF791FF3B1D1846FCF781FDF860BA
:1041C800FB68002B07D1381D114B124A1249FDF725
:1041D800B1FFFEF70FF8FCF767FD0346FB72FB7AA9
:1041E800012B07D00D4809F0ABFE3B461846FCF7FB
:1041F800A5FD04E00A4809F0A3FEFFF71BFEFFF740
:1042080049FE012000F0C4FCF9E700BFC0A8006423
:10421800CC210108D8210108E8210108F82101086A
:104228001822010880B590B000AF07F118032822C2
:104238000021184608F074FF3B1D00221A605A60DE
:104248009A60DA601A610123BB614FF48033FB6125
:1042580000233B620123BB6202237B634FF480335C
:10426800BB634FF4E013FB6307F11803184602F031
:10427800B9FE0346002B01D000F0AAF90F237B609A
:104288000223BB600023FB604FF480633B61002383
:104298007B613B1D0221184603F026F90346002BDB
:1042A80001D000F095F900BF4037BD4680BD000041
:1042B80080B500AF134B144A1A60124B4CF25032BF
:1042C8005A60104B00229A600E4B0022DA600D4BA8
:1042D8004FF480421A610B4B00225A61094B0022AD
:1042E8009A61084B0022DA61064B00221A620548DF
:1042F80001F084FA0346002B01D000F069F900BFF1
:1043080080BD00BFD83300200058004080B500AF02
:10431800174B184A1A60164B4FF482725A60144BA6
:1043280000229A60124B0022DA60114B00221A61B7
:104338000F4B00225A610E4B4FF400729A610C4BDE
:104348000022DA610A4B00221A62094B00225A62E3
:10435800074B00229A62064B0A22DA62044803F0ED
:1043680051FA0346002B01D000F032F900BF80BD9E
:104378002C3400200038004080B500AF114B124AA1
:104388001A60104B4FF4E1325A600E4B00229A60CB
:104398000C4B0022DA600B4B00221A61094B0C22ED
:1043A8005A61084B00229A61064B0022DA610548DF
:1043B80003F0BCFF0346002B01D000F009F900BF51
:1043C80080BD00BF843400200038014080B58AB029
:1043D80000AF07F1180300221A605A609A60DA6089
:1043E800364B9B69354A43F010039361334B9B6905
:1043F80003F010037B617B69304B9B692F4A43F0C4
:10440800400393612D4B9B6903F040033B613B697B
:104418002A4B9B69294A43F008039361274B9B6900
:1044280003F00803FB60FB68244B9B69234A43F0B5
:1044380020039361214B9B6903F02003BB60BB6899
:104448001E4B9B691D4A43F0040393611B4B9B69F8
:1044580003F004037B607B6800224FF48051184806
:1044680001F0B3F90123BB610023FB6101233B6227
:1044780007F118031946134800F0FCFF4FF4805366
:10448800BB610123FB6100233B6202237B6207F1CE
:10449800180319460A4800F0EDFF4FF40053BB61BA
:1044A800094BFB6100233B6207F1180319460748D3
:1044B80000F0E0FF00BF2837BD4680BD0010024075
:1044C800000C0140001001400000111000140140D0
:1044D80080B588B000AF07F1100300221A605A6057
:1044E8009A60DA603B4600221A605A609A60DA6085
:1044F8002B4B2C4A1A602A4B10225A60284B022256
:104508009A60274B0022DA60254B00221A61244B5F
:104518004FF400325A61224B00229A61204B00224C
:10452800DA611F4B4FF400625A621D4B40229A62B7
:104538001B4B4022DA621A4B4FF480621A63184B05
:1045480001225A63164B4FF480629A63144B00227F
:1045580083F83C2000233B6102237B610223BB617B
:104568000023FB6100233B6002237B600223BB60C6
:104578000023FB603A4607F110031946084802F089
:1045880070F90346002B01D000F022F8064BDB69D6
:10459800054A43F48063D36100BF2037BD4680BD20
:1045A800CC340020600000A00000014080B582B03B
:1045B80000AF7860391D4FF6FF730122034803F0FE
:1045C80005FF7B6818460837BD4680BD8434002047
:1045D80080B400AF72B600BFFEE7000080B485B0BB
:1045E80000AF154B9B69144A43F001039361124BCA
:1045F8009B6903F00103BB60BB680F4BDB690E4A84
:1046080043F08053D3610C4BDB6903F080537B602C
:104618007B680A4B5B68FB60FB6823F0E063FB6028
:10462800FB6843F08063FB60044AFB68536000BF8B
:104638001437BD4680BC704700100240000001409E
:1046480080B588B000AF786007F1100300221A60C7
:104658005A609A60DA607B681B68164A934224D1D4
:10466800154B9B69144A43F008039361124B9B69ED
:1046780003F00803FB60FB684FF440633B611223BF
:104688007B610323FB6107F1100319460B4800F017
:10469800F1FE094BDB69084A43F48003D361064BFA
:1046A800DB6903F48003BB60BB6800BF2037BD46ED
:1046B80080BD00BF0058004000100240000C0140BF
:1046C80080B588B000AF786007F1100300221A6047
:1046D8005A609A60DA607B681B681C4A934231D141
:1046E8001B4BDB691A4A43F48043D361184BDB69DF
:1046F80003F48043FB60FB68154B9B69144A43F045
:1047080008039361124B9B6903F00803BB60BB6805
:104718004FF420433B6102237B610323FB6107F1D4
:10472800100319460B4800F0A5FE4FF480433B6187
:1047380000237B610023BB6107F11003194605487C
:1047480000F098FE00BF2037BD4680BD003800400D
:1047580000100240000C014080B588B000AF7860BE
:1047680007F1100300221A605A609A60DA607B68C9
:104778001B681C4A934231D11B4B9B691A4A43F46C
:1047880080439361184B9B6903F48043FB60FB688B
:10479800154B9B69144A43F004039361124B9B69C0
:1047A80003F00403BB60BB684FF400733B61022352
:1047B8007B610323FB6107F1100319460B4800F0E6
:1047C80059FE4FF480633B6100237B610023BB618A
:1047D80007F110031946054800F04CFE00BF2037CA
:1047E800BD4680BD0038014000100240000801406D
:1047F80080B586B000AF07F1080300221A605A603E
:104808009A60DA601E4B1B68002B35D11C4B0122C5
:104818001A601C4B5B691B4A43F480735361194B44
:104828005B6903F480737B607B684FF4F063BB6063
:104838000223FB6003237B6107F108031946124832
:1048480000F018FE4DF6B303BB600223FB600323A0
:104858007B6107F1080319460C4800F00BFE402362
:10486800BB600023FB6000233B6107F10803194686
:10487800064800F0FFFD00E000BF1837BD4680BDC8
:104888000C350020001002400018014000140140BF
:1048980080B582B000AF7860FFF7AAFF00BF083785
:1048A800BD4680BD80B400AFFEE780B400AFFEE730
:1048B80080B400AFFEE780B400AFFEE780B400AF7D
:1048C800FEE780B400AF00BFBD4680BC704780B42F
:1048D80000AF00BFBD4680BC704780B400AF00BFCA
:1048E800BD4680BC704780B500AF00F035F900BF09
:1048F80080BD80B400AF01231846BD4680BC704718
:1049080080B582B000AF7860396008F0D1FB03460B
:1049180016221A604FF0FF3318460837BD4680BD8F
:1049280080B582B000AF78604FF0FF317868FFF74C
:10493800E7FFFEE780B586B000AFF860B9607A603F
:1049480000237B610AE0AFF300800146BB685A1C74
:10495800BA60CAB21A707B6901337B617A697B6875
:104968009A42F0DB7B6818461837BD4680BD80B593
:1049780086B000AFF860B9607A6000237B6109E017
:10498800BB685A1CBA601B781846FFF70FFE7B6994
:1049980001337B617A697B689A42F1DB7B68184650
:1049A8001837BD4680BD80B483B000AF78604FF043
:1049B800FF3318460C37BD4680BC704780B483B0BF
:1049C80000AF786039603B684FF400525A600023AA
:1049D80018460C37BD4680BC704780B483B000AF22
:1049E8007860012318460C37BD4680BC704780B4F8
:1049F80085B000AFF860B9607A60002318461437B4
:104A0800BD4680BC7047000080B586B000AF7860B6
:104A1800144A154BD31A7B617B693B61134B1B68A6
:104A2800002B02D1114B124A1A60104B1A687B688E
:104A380013443A699A4207D208F03AFB03460C221B
:104A48001A604FF0FF3309E0084B1B68FB60074B07
:104A58001A687B681344054A1360FB6818461837C0
:104A6800BD4680BD008001200004000010350020F4
:104A7800E045002080B400AF00BFBD4680BC704751
:104A8800FFF7F8FF0B480C490C4A002302E0D45802
:104A9800C4500433C4188C42F9D3094A094C002382
:104AA80001E013600432A242FBD308F007FBFFF7D2
:104AB80065FB70470000002028020020B04503086D
:104AC80028020020DC450020FEE7000080B500AF8A
:104AD800084B1B68074A43F010031360032000F0DB
:104AE8002BF9002000F008F8FFF778FD002318469E
:104AF80080BD00BF0020024080B582B000AF786062
:104B0800124B1A68124B1B7819464FF47A73B3FB91
:104B1800F1F3B2FBF3F3184600F035F90346002B26
:104B280001D001230EE07B680F2B0AD80022796898
:104B38004FF0FF3000F00BF9064A7B681360002342
:104B480000E0012318460837BD4680BD4800002014
:104B5800500000204C00002080B400AF054B1B78AB
:104B68001A46054B1B681344034A136000BFBD4631
:104B780080BC7047500000201435002080B400AF7E
:104B8800024B1B681846BD4680BC70471435002090
:104B980080B584B000AF7860FFF7F0FFB8607B683D
:104BA800FB60FB68B3F1FF3F05D00A4B1B781A4640
:104BB800FB681344FB6000BFFFF7E0FF0246BB68D9
:104BC800D31AFA689A42F7D800BF00BF1037BD461B
:104BD80080BD00BF5000002080B485B000AF786071
:104BE8007B6803F00703FB600C4BDB68BB60BA68AB
:104BF8004FF6FF031340BB60FB681A02BB68134300
:104C080043F0BF6343F40033BB60044ABB68D3601E
:104C180000BF1437BD4680BC704700BF00ED00E000
:104C280080B400AF044BDB681B0A03F00703184687
:104C3800BD4680BC704700BF00ED00E080B483B083
:104C480000AF03463960FB7197F90730002B0ADB88
:104C58003B68DAB20C4997F907301201D2B20B441B
:104C680083F800230AE03B68DAB20849FB7903F0CD
:104C78000F03043B1201D2B20B441A7600BF0C3763
:104C8800BD4680BC704700BF00E100E000ED00E0D9
:104C980080B489B000AFF860B9607A60FB6803F04F
:104CA8000703FB61FB69C3F10703042B28BF042337
:104CB800BB61FB690433062B02D9FB69033B00E0A7
:104CC80000237B614FF0FF32BB6902FA03F3DA433A
:104CD800BB681A407B699A404FF0FF317B6901FA43
:104CE80003F3D9437B680B40134318462437BD466A
:104CF80080BC704780B582B000AF78607B68013BAC
:104D0800B3F1807F01D301230FE00A4A7B68013B9E
:104D180053600F214FF0FF30FFF790FF054B002243
:104D28009A60044B07221A60002318460837BD46CC
:104D380080BD00BF10E000E080B582B000AF7860B1
:104D48007868FFF749FF00BF0837BD4680BD80B5CA
:104D580086B000AF0346B9607A60FB7300237B61BD
:104D6800FFF75EFF78617A68B9687869FFF790FFA6
:104D7800024697F90F3011461846FFF75FFF00BF4C
:104D88001837BD4680BD80B582B000AF78607868BE
:104D9800FFF7B0FF034618460837BD4680BD000040
:104DA800F0B587B000AFF860B960C7E90023012308
:104DB800FB750023BB7500237B753D4B1B7E012BC8
:104DC80001D1022370E03A4B01221A76BB68394AB6
:104DD800934206D84CF2503000F0E8F80346FB75D1
:104DE80005E04CF2503000F027F90346FB75FB7DD7
:104DF800002B55D1FB68012B02D101237B7507E0FD
:104E0800FB68022B02D102237B7501E004237B752A
:104E18000023BB753EE0BB7D5A00BB6802EB030C68
:104E2800BB7D1901D7E90023C1F12006A1F12000BB
:104E380022FA01F403FA06F6344323FA00F0044395
:104E480023FA01F5A3B21946604600F087F8BB685B
:104E5800184A93420CD84CF2503000F0A7F8034699
:104E6800FB75154B1B69144A23F0010313610BE012
:104E78004CF2503000F0E0F80346FB750E4B1B6D0A
:104E88000D4A23F001031365FB7D002B07D1BB7D81
:104E98000133BB75BA7D7B7D9A42BCD300E000BF6D
:104EA800034B00221A76FB7D18461C37BD46F0BD21
:104EB80018350020FFFF07080020024080B483B0A7
:104EC80000AF0023FB71174B1B6903F08003002B15
:104ED8000DD0144B144A5A60124B144A5A60114BA5
:104EE8001B6903F08003002B01D00123FB710D4BDC
:104EF8001B6D03F08003002B0DD00A4B0A4A5A643D
:104F0800084B0A4A5A64074B1B6D03F08003002BB9
:104F180001D00123FB71FB7918460C37BD4680BCD4
:104F2800704700BF0020024023016745AB89EFCDE1
:104F380080B400AF084B1B69074A43F08003136134
:104F4800054B1B6D044A43F0800313650023184684
:104F5800BD4680BC704700BF0020024080B483B0CB
:104F680000AF78600B467B800D4B0022DA617B68CE
:104F78000C4A934206D80C4B1B690B4A43F00103B9
:104F8800136105E0084B1B6D074A43F001031365E5
:104F98007B687A881A8000BF0C37BD4680BC704792
:104FA80018350020FFFF07080020024080B584B0B4
:104FB80000AF7860FFF7E2FDF86010E07B68B3F1BE
:104FC800FF3F0CD07B68002B07D0FFF7D7FD0246C8
:104FD800FB68D31A7A689A4201D2032325E0154B5D
:104FE800DB6803F00103002BE8D1124BDB6803F008
:104FF8002003002B02D00F4B2022DA600D4BDB6818
:1050080003F01003002B0BD10A4BDB6903F00103FB
:10501800002B05D1074BDB6803F00403002B03D0FA
:1050280000F04AF8012300E0002318461037BD4677
:1050380080BD00BF0020024080B584B000AF78601A
:10504800FFF79CFDF86010E07B68B3F1FF3F0CD0E0
:105058007B68002B07D0FFF791FD0246FB68D31A47
:105068007A689A4201D203231FE0124BDB6C03F0EB
:105078000103002BE8D10F4BDB6C03F02003002B5E
:1050880002D00C4B2022DA640A4BDB6C03F01003CD
:10509800002B05D1074BDB6C03F00403002B03D076
:1050A80000F00AF8012300E0002318461037BD4637
:1050B80080BD00BF0020024080B483B000AF002351
:1050C8007B60304BDB6803F01003002B05D12D4BC0
:1050D800DB6C03F01003002B09D02B4BDB6943F08A
:1050E8000203294AD3617B6843F010137B60254B88
:1050F800DB6803F00403002B05D1224BDB6C03F0C3
:105108000403002B09D0204BDB6943F001031E4A3E
:10511800D3617B6843F004137B601A4BDB6903F0AF
:105128000103002B0BD0184BDB6943F00403164A2C
:10513800D361144BDB69134A23F00103D3617B6805
:1051480040F20112934206D10E4BDB690D4A23F05F
:105158000103D36111E07B6803F03503002B04D011
:10516800084A7B6803F03503D3607B681B0C002B6F
:1051780003D0044A7B681B0CD36400BF0C37BD46C0
:1051880080BC7047002002401835002080B584B0EC
:1051980000AF786039600123FB730023BB60734B59
:1051A8001B7E012B01D10223DBE0704B01221A7612
:1051B8007B681B68022B66D17B685B68032B2FD149
:1051C8004CF25030FFF7F2FE0346002B40F0C5804A
:1051D8004CF25030FFF730FF0346002B40F0BD8003
:1051E800032000F0C9F84CF25030FFF7DFFE034609
:1051F800002B08D14CF25030FFF71EFF0346002B5E
:1052080001D10023FB735A4B1B69594A23F004034D
:105218001361574B1B6D564A23F0040313659CE03A
:105228007B685B68022B17D14CF25030FFF704FF04
:105238000346002B40F09180022000F09DF84CF2CC
:105248005030FFF7F9FE0346FB73494B1B6D484A84
:1052580023F00403136580E04CF25030FFF7A6FEFC
:105268000346002B79D1012000F086F84CF250302B
:10527800FFF79CFE0346FB733D4B1B693C4A23F03A
:105288000403136169E07B689B683A4A934232D908
:105298004CF25030FFF7D0FE0346002B5DD13B683F
:1052A8004FF0FF321A607B689B68BB6019E0B868F2
:1052B80000F0AAF84CF25030FFF7BEFE0346FB732D
:1052C8002B4B1B6D2A4A23F002031365FB7B002B33
:1052D80003D03B68BA681A603FE0BB6803F5006317
:1052E800BB607B689A687B68DB68DB021344BA683A
:1052F8009A42DCD331E04CF25030FFF757FE0346B8
:10530800002B2AD13B684FF0FF321A607B689B68FC
:10531800BB6019E0B86800F077F84CF25030FFF73E
:1053280045FE0346FB73124B1B69114A23F0020327
:105338001361FB7B002B03D03B68BA681A600CE052
:10534800BB6803F50063BB607B68DB68DA027B68D7
:105358009B681344BA689A42DCD3044B00221A763D
:10536800FB7B18461037BD4680BD00BF18350020AE
:1053780000200240FFFF070880B483B000AF7860C8
:105388001F4B0022DA617B68032B18D11D4B1B6968
:105398001C4A43F0040313611A4B1B6D194A43F06E
:1053A80004031365174B1B69164A43F04003136146
:1053B800144B1B6D134A43F0400313651BE07B68D5
:1053C800022B0CD10F4B1B6D0E4A43F004031365DF
:1053D8000C4B1B6D0B4A43F0400313650BE0094B64
:1053E8001B69084A43F004031361064B1B69054A0D
:1053F80043F04003136100BF0C37BD4680BC7047C3
:10540800183500200020024080B483B000AF7860D7
:10541800154B0022DA617B68144A93420FD9144B6A
:105428001B6D134A43F002031365114A7B685365E9
:105438000F4B1B6D0E4A43F0400313650EE00C4BF7
:105448001B690B4A43F002031361094A7B685361E5
:10545800074B1B69064A43F04003136100BF0C3732
:10546800BD4680BC704700BF18350020FFFF070805
:105478000020024080B48BB000AF78603960002310
:105488007B6200233B6279E101227B6A02FA03F323
:10549800FB613B681B68FA691340BB61BA69FB6929
:1054A8009A4240F068813B685B68964A93425ED0B6
:1054B800944A934275D8944A934258D0924A934258
:1054C8006FD8924A934252D0904A934269D8904AF0
:1054D80093424CD08E4A934263D88E4A934246D028
:1054E8008C4A93425DD8122B2AD8122B59D801A284
:1054F80052F823F077550008515500086355000805
:10550800A5550008AB550008AB550008AB55000879
:10551800AB550008AB550008AB550008AB55000863
:10552800AB550008AB550008AB550008AB55000853
:10553800AB550008AB550008595500086D550008D3
:10554800754A934213D02CE03B68DB683B6229E044
:105558003B68DB6804333B6224E03B68DB68083364
:105568003B621FE03B68DB680C333B621AE03B6838
:105578009B68002B02D104233B6213E03B689B68C5
:10558800012B05D108233B627B68FA691A6109E09F
:1055980008233B627B68FA695A6103E000233B6297
:1055A80000E000BFBB69FF2B01D87B6801E07B6886
:1055B80004337B61BB69FF2B02D87B6A9B0002E046
:1055C8007B6A083B9B003B617B691A680F213B693A
:1055D80001FA03F3DB431A40396A3B6901FA03F322
:1055E8001A437B691A603B685B6803F08053002BA1
:1055F80000F0C180494B9B69484A43F0010393611D
:10560800464B9B6903F00103BB60BB68444A7B6A55
:105618009B08023352F82330FB607B6A03F00303D4
:105628009B000F2202FA03F3DB43FA681340FB6086
:105638007B683C4A93421FD07B683B4A934219D00F
:105648007B683A4A934213D07B68394A93420DD01B
:105658007B68384A934207D07B68374A934201D126
:1056680005230AE0062308E0042306E0032304E0F8
:10567800022302E0012300E000237A6A02F0030219
:1056880092009340FA681343FB6025497B6A9B08A4
:105698000233FA6841F823203B685B6803F48013FF
:1056A800002B06D0254B9A682449BB6913438B60AD
:1056B80006E0224B9A68BB69DB43204913408B60A4
:1056C8003B685B6803F40013002B06D01B4BDA68B9
:1056D8001A49BB691343CB6006E0184BDA68BB690B
:1056E800DB4316491340CB603B685B6803F4003327
:1056F800002B25D0114B5A681049BB6913434B60E6
:1057080025E000BF00003210000031100000221018
:1057180000002110000012100000111000100240BB
:105728000000014000080140000C01400010014049
:105738000014014000180140001C01400004014011
:10574800154B5A68BB69DB43134913404B603B68F0
:105758005B6803F48033002B06D00F4B1A680E49A0
:10576800BB6913430B6006E00B4B1A68BB69DB434C
:10577800094913400B607B6A01337B623B681A68F6
:105788007B6A22FA03F3002B7FF47EAE00BF00BFD2
:105798002C37BD4680BC70470004014080B485B0FA
:1057A80000AF78600B467B807B689A687B881340E3
:1057B800002B02D00123FB7301E00023FB73FB7B6A
:1057C80018461437BD4680BC704780B483B000AF1C
:1057D80078600B467B8013467B707B78002B03D068
:1057E8007A887B681A6103E07B881A047B681A61EF
:1057F80000BF0C37BD4680BC7047000080B584B040
:1058080000AF78607B68002B01D101232BE17B6816
:1058180093F83D30DBB2002B06D17B68002283F879
:105828003C207868FEF70CFF7B68242283F83D2033
:105838007B681B681A687B681B6822F001021A6083
:105848007B681B681A687B681B6842F400421A6010
:105858007B681B681A687B681B6822F400421A6020
:1058680001F08AFFF8607B685B68814A934207D839
:10587800FB68804A934294BF01230023DBB206E011
:10588800FB687D4A934294BF01230023DBB2002BBF
:1058980001D00123E7E0FB68784AA2FB03239B0CB5
:1058A800BB607B681B685B6823F03F017B681B68F3
:1058B800BA680A435A607B681B681B6A23F03F0179
:1058C8007B685B686A4A934202D8BB68013309E087
:1058D800BB684FF4967202FB03F3694AA2FB0323E9
:1058E8009B0901337A6812680B4313627B681B6853
:1058F800DB6923F44F4222F0FF027B685B685C4956
:105908008B4219D8FB68591E7B685B685B00B1FB4A
:10591800F3F3591C40F6FC730B40002B0AD0FB68CC
:10592800591E7B685B685B00B1FBF3F30133C3F37B
:105938000B0351E004234FE07B689B68002B11D1D7
:10594800FB68581E7B6859680B465B000B44B0FB2C
:10595800F3F30133C3F30B03002B0CBF0123002324
:10596800DBB212E0FB68581E7B6859680B469B0047
:105978000B4499000B44B0FBF3F30133C3F30B035F
:10598800002B0CBF01230023DBB2002B01D0012325
:1059980022E07B689B68002B0ED1FB68581E7B6851
:1059A80059680B465B000B44B0FBF3F30133C3F3B8
:1059B8000B0343F400430FE0FB68581E7B685968EB
:1059C8000B469B000B4499000B44B0FBF3F30133E7
:1059D800C3F30B0343F44043796809681343CB616D
:1059E8007B681B681B6823F0C0017B68DA697B68E9
:1059F8001B6A1A437B681B680A431A607B681B682A
:105A08009B6823F4034323F0FF037A6811697A68DB
:105A1800D26811437A6812680B4393607B681B68ED
:105A2800DB6823F0FF017B685A697B689B691A432E
:105A38007B681B680A43DA607B681B681A687B68A6
:105A48001B6842F001021A607B6800221A647B68B6
:105A5800202283F83D207B6800221A637B6800229D
:105A680083F83E20002318461037BD4680BD00BF8E
:105A7800A08601007F841E00FF083D0083DE1B43D3
:105A8800D34D621080B588B002AFF8607A601A46CC
:105A98000B467B8113463B81FFF770F87861FB6802
:105AA80093F83D30DBB2202B40F0E0807B69009317
:105AB800192301227049F86800F09EFC0346002B68
:105AC80001D00223D3E0FB6893F83C30012B01D1CD
